:1000000010C400003FC400003DC400003BC4000019
:1000100039C4000037C4000035C4000033C40000F8
:1000200031C400002FC400002DC400002BC4000008
:1000300029C4000027C4000025C4000023C4000018
:1000400021C400001FC400001DC400001BC4000028
:1000500019C4000017C4000015C400000C94073830
:1000600011C400000FC400000DC400000BC4000048
:1000700009C4000007C4000005C4000003C4000058
:1000800001C40000FFC30000FDC30000FBC300006B
:10009000F9C30000F7C30000F5C30000F3C300007C
:1000A000F1C30000EFC30000EDC30000EBC300008C
:1000B000E9C30000E7C30000E5C30000E3C300009C
:1000C000E1C30000DFC30000DDC30000DBC30000AC
:1000D000D9C30000D7C30000D5C30000D3C30000BC
:1000E000D1C300009414B214D914EF14EF14EF1418
:1000F00006158E1594148E1529158E15371537157E
:1001000054155415D914BA15BA15D91437158E15B6
:10011000EF1462158E158E158E158E158E157C15A5
:100120008E158E1527168817711840194B1A4B1A01
:10013000DD1B311DD6223E1E2F209B2064243D2531
:100140001927192771180C300C30711810261A282D
:100150005F1BE328AE29B42BDB2A6D2CB42D0E2FA8
:10016000222FD61E1F392239113915391B39593919
:1001700026392A393039343938393E394239463905
:1001800059394C395039543905A84CCDB2D44EB9EF
:100190003836A9020C50B9918688083CA6AAAA2A2A
:1001A000BE000000803F080C205F0000000000003F
:1001B000000000000000000020202020202000205F
:1001C0000000002850500000000000000000000067
:1001D0002828FC2850FC50500000002078A8A0607F
:1001E0003028A8F02000000048A8B0502834544817
:1001F0000000000020505078A8A8906C000000403B
:1002000040800000000000000000000408101010F2
:1002100010101008040000402010101010101020C2
:10022000400000000020A87070A82000000000001E
:10023000202020F820202000000000000000000006
:100240000000004040800000000000F800000000B6
:100250000000000000000000000000400000000856
:1002600010101020204040408000000070888888D6
:1002700088888870000000002060202020202070E6
:100280000000000070888810204080F80000000006
:100290007088083008088870000000001030505046
:1002A0009078101800000000F88080F0080888702E
:1002B00000000000709080F08888887000000000C6
:1002C000F890102020202020000000007088887006
:1002D00088888870000000007088888878084870D6
:1002E00000000000000020000000002000000000CE
:1002F0000000002000000020200000040810204022
:1003000020100804000000000000F80000F80000C1
:1003100000000040201008040810204000000000E9
:10032000708888102020002000000000708898A8A5
:10033000A8B880780000000020203050507848CCC9
:1003400000000000F0484870484848F000000000F5
:10035000788880808080887000000000F0484848DD
:10036000484848F000000000F8485070504048F8F5
:1003700000000000F8485070504040E000000000CD
:10038000384880809C88483000000000CC4848787D
:10039000484848CC00000000F8202020202020F809
:1003A000000000007C10101010101090E000000001
:1003B000EC485060505048EC00000000E0404040E5
:1003C000404044FC00000000D8D8D8D8A8A8A8A86D
:1003D00000000000DC486868585848E80000000049
:1003E000708888888888887000000000F04848700D
:1003F000404040E0000000007088888888E89870DD
:1004000018000000F0484870504848EC0000000018
:1004100078888060100888F000000000F8A820208C
:100420002020207000000000CC4848484848483050
:1004300000000000CC484850503020200000000050
:10044000A8A8A8705050505000000000D85050206C
:10045000205050D800000000D8505020202020709C
:1004600000000000F8901020204048F800000038FC
:100470002020202020202020380000404040202044
:100480001010100800000070101010101010101044
:10049000700000205000000000000000000000007C
:1004A000000000000000000000FC00200000000030
:1004B0000000000000000000000000304838483C08
:1004C00000000000C0404070484848700000000034
:1004D0000000003848404038000000001808083884
:1004E0004848483C00000000000000304878403890
:1004F000000000001C202078202020780000000050
:100500000000003C4830407844380000C040407053
:10051000484848EC000000002000006020202070C7
:1005200000000000100000301010101010E000005B
:10053000C040405C507048EC00000000E0202020EB
:10054000202020F800000000000000F0A8A8A8A8C3
:1005500000000000000000F0484848EC00000000E7
:10056000000000304848483000000000000000F063
:100570004848487040E000000000003848484838CB
:10058000081C0000000000D8604040E000000000AF
:100590000000007840300878000000000020207043
:1005A0002020201800000000000000D84848483CE7
:1005B00000000000000000EC485030200000000067
:1005C000000000A8A870505000000000000000D8F3
:1005D000502050D800000000000000EC48503020AF
:1005E00020C00000000000781020207800000018D3
:1005F00010101020101010101800101010101010F3
:10060000101010101010006020202010202020203A
:10061000600040A41800000000000000000000007E
:100620000A0B02090C0D0E0807030401000000006C
:1006300000000000000000000000000000000000BA
:100640000000000000000000000012111000000077
:10065000000000000000000000000000000000009A
:100660000000000001021020200808102040102087
:100670004080020102010804020101020408102066
:100680004080804020100804020180040201804064
:1006900020100804020108040201010204081020CD
:1006A000408001020408102040800505050507056B
:1006B00008080808020202020A0A080804040404DE
:1006C000010101010101010103030303030303030A
:1006D000040707070C0C0C0C0C0C0C0C0202020299
:1006E00006060606060606060B0B0B0B0B0B0B0B82
:1006F00000002200250028002B002E0031003400CD
:1007000002010000050108010B0100002100240086
:1007100027002A002D0030003300010100000401F1
:1007200007010A0100407A10F35A00A0724E18091E
:100730000010A5D4E80000E87648170000E40B5448
:10074000020000CA9A3B000000E1F5050000809617
:100750009800000040420F000000A0860100000049
:10076000102700000000E803000000006400000003
:1007700000000A00000000000100000000002C76CC
:10078000D888DC674F0823DFC1DFAE59E1B1B796E7
:10079000E5E3E453C63AE651997696E8E6C2842644
:1007A000EB898C9B62ED407C6FFCEFBC9C9F40F220
:1007B000BAA56FA5F490055A2AF75C936B6CF9679C
:1007C0006DC11BFCE0E40D47FEF520E6B500D0ED61
:1007D000902E0300943577050080841E08000020C9
:1007E0004E0A000000C80C333333330F986E128367
:1007F0001141EF8D2114893BE65516CFFEE6DB183B
:10080000D1844B381BF77C1D901DA4BBE4242032FF
:1008100084725E228100C9F124ECA1E53D278B059D
:10082000300D11241FBECFEFD1E2DEBFCDBF00E0FF
:100830000CBF14E0A0E0B2E0E0EFFEE700E00BBF89
:1008400002C007900D92A036B107D9F727E0A0E6C5
:10085000B4E001C01D92A732B207E1F718E0C2E28E
:10086000D8E000E006C022970109FE010BBF0E94FC
:10087000F43CCE31D10780E00807A9F70E94C939BE
:100880000C94763FBDCB60E083E894E00E94C615EF
:1008900083E894E00E94363061E082EC94E06CD30F
:1008A0002FEF4FEF6FEF83E894E00E94D63066EAB7
:1008B00071E083E894E00E94933683E894E00E941C
:1008C000AE3690936E0480936D0483E894E00E94AA
:1008D000B93690936C0480936B04803421E09207C6
:1008E00089F0803921E0920741F08C3D910561F556
:1008F000E7E0F2E0AFE6B4E00AC0EBE1F2E0AFE639
:10090000B4E019C0EFE2F2E0AFE6B4E00AC082E082
:10091000EB31F80729F0819191918D939D93F7CF59
:10092000089522E0E334F20729F0819191918D93AB
:100930009D93F7CF089582E0EF32F80729F0819177
:1009400091918D939D93F7CF08958F92AF92BF921F
:10095000CF92EF92FF920F931F93CF93DF93CFE647
:10096000D4E084E0C338D80709F4CAC088819981EB
:100970008150934009F4C2C00E94513860936404CE
:10098000709365048093660490936704E880F9800F
:1009900000916B0410916C0420916D0430916E04F1
:1009A00040E050E060E070E083E894E00E94C436EC
:1009B00090936904809368040E94513860936004A6
:1009C000709361048093620490936304809168043F
:1009D000909169040097D1F100E010E020E030E050
:1009E00040E050E0409789F468EE72E083E894E0DC
:1009F0000E947034688179812EE030E040E050E060
:100A000083E894E00E94703416C06AEF72E083E8D5
:100A100094E00E947034409168045091690460E051
:100A200070E020E2C22EE12CF12C28E330E083E8D4
:100A300094E00E94183568EB7BE080E090E00E9433
:100A4000803883E894E00E94363058C080916A0470
:100A50008823C9F100E010E020E030E040E050E001
:100A600062E073E083E894E00E9470346091600477
:100A70007091610480916204909163040091640418
:100A8000109165042091660430916704601B710B1E
:100A9000820B930B0E94DE3A20E030E04AE754E4F8
:100AA0000E94433AAB01BC0180E2882EA12CB12CFC
:100AB0009EE2C92EE12CF12C00EA10E022E083E84E
:100AC00094E00E940F3680910602882389F083E823
:100AD00094E00E94B9369C012C50310968817981DB
:100AE00000E010E04EE057E283E894E00E947034AA
:100AF00068EB7BE080E090E00E948038229631CF66
:100B0000DF91CF911F910F91FF90EF90CF90BF9009
:100B1000AF908F900895CF92DF92EF92FF920F9354
:100B20001F93C12CD12C39E2E32EF12C08E210E006
:100B300027E230E046E250E062E083E894E00E9481
:100B40002E121F910F91FF90EF90DF90CF9008959C
:100B50008EBD0DB407FEFDCF08958FEFF9DF8EB582
:100B600008950F931F93CF93DF93EC010E945138A8
:100B70008B01F3DF8F3F49F00E945138601B710BEE
:100B80006C177D07B0F380E001C081E0DF91CF9169
:100B90001F910F9108951F93CF93DF9300D01F9261
:100BA000CDB7DEB7182FE091C004F091C104808169
:100BB0009091B9049095982390838CE291E04C83B6
:100BC0005B836A837983CDDF812F8064C1DF798184
:100BD000872FBEDF6A81862FBBDF5B81852FB8DF61
:100BE0004C81842FB5DF112321F0183021F08FEFD5
:100BF00003C085E901C087E8ABDF10E0AEDF87FF07
:100C000004C01F3F11F01F5FF9CF0F900F900F909E
:100C10000F90DF91CF911F910895CF92DF92EF92C5
:100C2000FF92CF93C82F6A017B0140E050E0BA01E8
:100C300087E3B1DFB701A6018C2FCF91FF90EF9032
:100C4000DF90CF90A8CFCF93DF930E945138EB0174
:100C500084DF8F3F49F40E9451386C1B7D0B69354E
:100C60007240B0F38FE003C08E3F71F08DE080934F
:100C7000B404E091C004F091C10480819091B90462
:100C8000892B808380E001C081E0DF91CF910895BE
:100C9000873028F086E18093B40480E00895806571
:100CA0008CBD81E008950F931F93CF93DF93182F8E
:100CB0000E945138EB018091470290E0FC01E6551B
:100CC000F94FE491F0E0EE0FFF1FE051F94F25914D
:100CD00034913093C1042093C004FC01EC59F94FC6
:100CE00084918093B9048091440290E0FC01E65520
:100CF000F94FE491F0E0EE0FFF1FE051F94FA5919D
:100D0000B491B093BF04A093BE04FC01EC59F94F19
:100D100084918093B8048091450290E0FC01E655EF
:100D2000F94FE491F0E0EE0FFF1FE051F94F4591CC
:100D300054915093BD044093BC04FC01EC59F94F0D
:100D400084918093B7044091430250E0FA01E65544
:100D5000F94FE491F0E0EE0FFF1FE051F94F85915C
:100D600094919093BB048093BA04FA01EC59F94F23
:100D700044914093B604F90150816091B904562B17
:100D80005083FC012081242B20838C919091B80406
:100D9000892B8C9361E0809147020E945A3961E06F
:100DA000809145020E945A3961E0809143020E947D
:100DB0005A3960E0809144020E945A3961E0809182
:100DC00046020E945A3961E0809146020E9493399E
:100DD000E091C004F091C10480819091B904892B05
:100DE000808383E58CBD8DB58E7F8DBD0AE08FEF4E
:100DF000AFDE0150E1F7E091C004F091C1049081B1
:100E00008091B90480958923808340E050E0BA0145
:100E100080E0C1DE082F813049F00E9451386C1B00
:100E20007D0B613D774088F381E032C04AEA51E0B2
:100E300060E070E088E0AFDE82FF03C00093B5049D
:100E40000BC08BDE8ADE89DE88DE8A3A11F082E012
:100E50001FC082E08093B50440E050E0BA0189E20F
:100E6000DCDE882349F00E9451386C1B7D0B613D0C
:100E7000774090F388E00CC08091B504823021F572
:100E800040E050E0BA018AE386DE882399F086E0EC
:100E90008093B404E091C004F091C10480819091EA
:100EA000B904892B80838091B404DF91CF911F9185
:100EB0000F91089552DE807C803C19F483E080938A
:100EC000B5044BDE4ADE49DEE091C004F091C10476
:100ED00080819091B904892B8083812FDF91CF91FC
:100EE0001F910F91D5CECF92DF92EF92FF92CF93C9
:100EF000DF93EC016A017B018091B504833039F006
:100F000079E0CC0CDD1CEE1CFF1C7A95D1F7B70103
:100F1000A60181E140DE8111FACF95DE81110CC07E
:100F20001092B404E091C004F091C10480819091CA
:100F3000B904892B808318C08FEF8EBDFE0120E09D
:100F400030E00DB407FEFDCF9EB591938EBD2F5FAF
:100F50003F4F2F3F91E03907A1F70DB407FEFDCFBA
:100F60008EB5C150DE4F888380E0DF91CF91FF9036
:100F7000EF90DF90CF9008958F929F92AF92BF92A3
:100F8000CF92DF92EF92FF920F931F93CF93DF9355
:100F9000EC01862F88DE6E0181E4C80ED11C40E092
:100FA00050E0BA01C6019FDF81116AC17E01E1EC08
:100FB000EE1AEDEFFE0AF7018081853509F062C176
:100FC0008E01005C1D4FF80180818A3A09F05AC1F8
:100FD000FD97208128833796408150E060E070E0E3
:100FE000742F6627552744273197808190E0A0E031
:100FF000B0E0DC0199278827480F591F6A1F7B1F23
:101000003197808190E0982F882731973081830F26
:10101000911D480F591F611D711D49835A836B83B0
:101020007C8337968080912CA12CB12CB82CAA24DB
:10103000992488243197808190E0A0E0B0E0DC0121
:1010400099278827880E991EAA1EBB1E319780817A
:1010500090E0982F882731973081830F911D880E5B
:10106000991EA11CB11C8D829E82AF82B886822FF0
:101070008D7F843019F0263809F006C1C60133DFB0
:10108000811104C1F7018081853509F001C1F801A2
:1010900080818A3A09F0FCC0FE01E25BFF4F80814B
:1010A00089873296808190E0982F88273197208118
:1010B000820F911D9B878A87329610811C873296FA
:1010C000208130E0322F222731974081240F311DBB
:1010D0003E872D873396408150E0542F4427319727
:1010E0002081420F511D60E070E04F87588B698B63
:1010F0007A8B452B462B472B31F57096408150E07B
:1011000060E070E0742F6627552744273197C08030
:10111000D12CE12CF12C7601DD24CC244C0D5D1D6D
:101120006E1D7F1D3197208130E0322F22273197AD
:10113000E0812E0F311D420F531F611D711D4F871E
:10114000588B698B7A8BFE01E85AFF4F208130E083
:10115000322F222731974081240F311D3C8B2B8B5E
:101160003996408150E060E070E0742F6627552783
:1011700044273197C080D12CE12CF12C7601DD245D
:10118000CC244C0D5D1D6E1D7F1D3197E081F0E07C
:10119000FE2FEE27DE01A35ABF4FAC91EA0FF11DDF
:1011A0004E0F5F1F611D711D4D8B5E8B6F8B788F96
:1011B000FE01E559FF4F408150E060E070E0742F80
:1011C0006627552744273197C080D12CE12CF12C7C
:1011D0007601DD24CC244C0D5D1D6E1D7F1D3197E5
:1011E000E081F0E0FE2FEE27DE01A859BF4FAC9161
:1011F000EA0FF11D4E0F5F1F611D711D498F5A8F40
:101200006B8F7C8FC980DA80EB80FC80FE01FD96BD
:10121000B701A601480F591F611D711D129FD00112
:10122000139FB00D11244A0F5B1F611D711D408378
:10123000518362837383C80ED91EDE8ECD8EC20E9B
:10124000D31ED8A2CF8E6D817E818F81988529E0B3
:10125000660F771F881F991F2A95D1F70E94DC3AE5
:1012600020E030E040E855E30E94C73B69A37AA341
:101270008BA39CA3C55ADD4F81E0888380E009C021
:1012800080EF07C081EF05C082EF03C080EE01C090
:1012900081EEDF91CF911F910F91FF90EF90DF9042
:1012A000CF90BF90AF909F908F9008958F929F9214
:1012B000AF92BF92CF92DF92EF92FF920F931F9364
:1012C000CF93DF935C01EB01FC01FD96C080D180E0
:1012D000E280F3808C01075A1D4FF80111821082C1
:1012E0004C01F1E48F0E911CB701A601C401FBDD96
:1012F000F4018081882361F180E090E0AC01455FDA
:101300005F4F4A0D5B1DFA01EF5BFF4F2081287193
:1013100009F18096F801208131812F5F3F4F3183A1
:1013200020838115F2E09F0759F42FEFC21AD20AE9
:10133000E20AF20AB701A601C401D5DD80E090E01F
:10134000F501E80FF91FEF5BFF4F20812111D6CF88
:1013500081E075C09501280F391FF901EF5BFF4F40
:101360006081653EB1F2FE0180E090E0D901A80FF6
:10137000B91FAF5BBF4F6C916193019688309105A7
:10138000A9F780E090E0FE01E80FF91FD901A80F4E
:10139000B91FA75BBF4F6C916187019683309105A0
:1013A00091F718861C86FA01EF5BFF4F80818D87CD
:1013B000F901E05BFF4F808190E0982F88273197FB
:1013C0004081840F911D9F878E873396808190E0A6
:1013D000982F882731974081840F911D998B888B96
:1013E0003B96808190E0982F882731974081840F29
:1013F000911D9B8B8A8B359640813197808190E03F
:10140000A0E0B0E0DC0199278827B42B3197408118
:1014100050E0542F442731972081422B60E070E048
:10142000842B952BA62BB72B8C8B9D8BAE8BBF8BD8
:10143000F8018081918101969183808380E0DF9122
:10144000CF911F910F91FF90EF90DF90CF90BF90C1
:10145000AF909F908F9008954F925F926F927F927E
:10146000AF92BF92CF92DF92EF92FF920F931F93B2
:10147000CF93DF937C01EB01FC01FD96408051800E
:10148000628073806C0187EAC81A8DEFD80AF60172
:101490000081118185E0000F111F8A95E1F7C801D5
:1014A000892F99278695480E591E611C711C982F0B
:1014B0008827990F081B190B5701F1E4AF0EB11CD7
:1014C000B301A201C5010FDDF701E00FF11FEF5BD2
:1014D000FF4F8081811102C081E098C0A801455F63
:1014E0005F4F4E0D5F1DFA01EF5BFF4F80818871EA
:1014F000C1F0005E1F4FF6018081918101969183BA
:1015000080830115F2E01F07F9F68FEF481A580A99
:10151000680A780AB301A201C501E5DC00E010E029
:10152000D3CF9701200F311FF901EF5BFF4F80816F
:10153000853EF9F2FE0180E090E0D901A80FB91FC5
:10154000AF5BBF4F6C916193019688309105A9F70D
:1015500080E090E0FE01E80FF91FD901A80FB91F44
:10156000A75BBF4F6C91618701968330910591F71E
:1015700018861C86FA01EF5BFF4F80818D87F90189
:10158000E05BFF4F808190E0982F88273197408162
:10159000840F911D9F878E873396808190E0982FCE
:1015A000882731974081840F911D998B888B3B96BA
:1015B000808190E0982F882731974081840F911D7A
:1015C0009B8B8A8B359640813197808190E0A0E09B
:1015D000B0E0DC0199278827B42B3197408150E097
:1015E000542F442731972081422B60E070E0842BF8
:1015F000952BA62BB72B8C8B9D8BAE8BBF8BF601BF
:101600008081918101969183808380E0DF91CF91E9
:101610001F910F91FF90EF90DF90CF90BF90AF9010
:101620007F906F905F904F900895BF92CF92DF921E
:10163000EF92FF920F931F93CF93DF93CDB7DEB757
:10164000A5970FB6F894DEBF0FBECDBF7C018B010E
:10165000D42EFC01EF5BFD4F80818111DEC0DB01E8
:10166000F80101900020E9F73197E01BF10BCD0163
:10167000801B910B8E179F0740F48C919FE9980F68
:101680009A3108F480528D93EBCFBE016F5F7F4F8C
:10169000C7010CDEB82E81E0B81699F1FE017996EB
:1016A000DE01119640E050E005C04830510541F0A0
:1016B0008193A9018D919A012F5F3F4F8032A9F745
:1016C000E9E1F0E0EC0FFD1FE40FF51F8EE28083EF
:1016D0004C5F5F4FFE013A9681918032A1F4E9E1BF
:1016E000F0E0EC0FFD1FE20FF31F1082B801CE01F6
:1016F00049960E94183D892B99F04EE2C42EBB20DA
:10170000F9F080E18BC02417350749F3A9E1B0E077
:10171000AC0FBD1FA20FB31F8C932F5F3F4FDCCFC9
:10172000C7019E012A5D3F4FFE0179964191DC0180
:10173000AF5BBD4F4C930196E217F307B9F740C07A
:10174000BE016F5F7F4F82EC94E086DEB82E811180
:10175000D6CFDE015996FE01319620E030E041916E
:10176000C9010196403209F044C0E9E1F0E0EC0F14
:10177000FD1FE20FF31FC0822C5F3F4FFE013A9620
:1017800041914032E9F5E9E1F0E0EC0FFD1FE80F8F
:10179000F91F1082B801CE0149960E94183D892B8D
:1017A00079F6C7019E012A5D3F4FFE01799641916E
:1017B000DC01AF5BBD4F4C930196E217F307B9F71D
:1017C000F701E25BFD4F8B899C8991838083329680
:1017D0000D891E892F89388D0083118322833383DD
:1017E000349610821182128213823496D08280E065
:1017F00015C02830310509F4B8CF4D939C01AFCF07
:101800008217930709F4BFCFA9E1B0E0AC0FBD1F69
:10181000A80FB91F4C930196B3CF81E1A5960FB6DF
:10182000F894DEBF0FBECDBFDF91CF911F910F9116
:10183000FF90EF90DF90CF90BF900895FC01EF5B99
:10184000FD4F10827796108208950F931F93CF93C8
:10185000DF93EC018B01472F55278D8D9E8D480F0F
:10186000591F60E070E0CE018F5B9F4F3CDBB801F9
:101870007727660F771F6C0F7D1FFB01EF5BFF4F14
:1018800020813196808190E0982F8827820F911DCA
:10189000DF91CF911F910F9108954F925F926F92B8
:1018A0007F928F929F92AF92BF92CF92DF92EF92F0
:1018B000FF920F931F93CF93DF93EC01FC01E85A43
:1018C000FD4F8081813009F0ADC08E010C5A1D4F53
:1018D000F801C080D180E280F380CE01825B9D4F11
:1018E0005C01C114D104E104F10431F4FC018081F4
:1018F0009181892B09F49BC0298530E040E050E0BC
:10190000C701B6010E94973C672B682B692B61F4D5
:10191000CD28CE28CF2841F0F50160817181CE011C
:1019200094DFF50191838083AC852B893C898D847C
:101930009E844984512C612C712C8A859B85CD888D
:10194000DE88EF88F88CC80ED91EE11CF11CB0E0CF
:101950000E94DB3CC60ED71EE81EF91EF80160810E
:10196000718182819381A30192010E94973CC60EEE
:10197000D71EE81EF91EC401A0E0B0E024E0B69531
:10198000A795979587952A95D1F7C80ED91EEA1E77
:10199000FB1EF5012081318140E050E022503109E9
:1019A00041095109C301B2010E94743CC60ED71E01
:1019B000E81EF91EB701A601CE018F5B9F4F93DA97
:1019C000882311F090E03BC0F80140815181628191
:1019D00073814F5F5F4F6F4F7F4F408351836283AF
:1019E0007383C05BDD4F88819981AA81BB818A01A5
:1019F0009B01D9E0000F111F221F331FDA95D1F789
:101A000080179107A207B307A8F49E5FE0E0FEEFFE
:101A10004E9F90014F9F300D5E9F300D1124820F1D
:101A2000931F0DC0811109C080EF9FEF08C08DEF9B
:101A30009FEF05C080E092E002C081EF9FEFDF9151
:101A4000CF911F910F91FF90EF90DF90CF90BF90BB
:101A5000AF909F908F907F906F905F904F90089580
:101A600010921D070895FC01283009F4FAC018F4FB
:101A7000213041F00895203109F403C1213109F4E6
:101A80000EC1089587858430C9F4A08DB18D82A1DF
:101A90009C91613019F4982B9C9303C08095892305
:101AA0008C93A28DB38D9C9183A1809589238C9377
:101AB000A28DB38D8C9193A1892B0BC0A089B18984
:101AC000868D9C91613019F4982B9C9303C080956E
:101AD00089238C93A08DB18D82A19C9147FF03C077
:101AE000982B9C9303C0809589238C93A28DB38DF2
:101AF0009C9183A1809589238C93A28DB38D8C9129
:101B000093A1892B8C93A08DB18D82A19C9146FFCE
:101B100003C0982B9C9303C0809589238C93A28D3E
:101B2000B38D9C9183A1809589238C93A28DB38DD5
:101B30008C9193A1892B8C93A08DB18D82A19C91C6
:101B400045FF03C0982B9C9303C0809589238C93F9
:101B5000A28DB38D9C9183A1809589238C93A28DB6
:101B6000B38D8C9193A1892B8C93A08DB18D82A183
:101B70009C9144FF03C0982B9C9303C080958923BC
:101B80008C93A28DB38D9C9183A1809589238C9396
:101B9000A28DB38D8C9193A1892B8C93A08DB18D47
:101BA00082A19C9143FF03C0982B9C9303C0809516
:101BB00089238C93A28DB38D9C9183A180958923D9
:101BC0008C93A28DB38D8C9193A1892B8C93A08D36
:101BD000B18D82A19C9142FF03C0982B9C9303C0BE
:101BE000809589238C93A28DB38D9C9183A1809540
:101BF00089238C93A28DB38D8C9193A1892B8C9387
:101C0000A08DB18D82A19C9141FF03C0982B9C9324
:101C100003C0809589238C93A28DB38D9C9183A161
:101C2000809589238C93A28DB38D8C9193A1892B60
:101C30008C93A08DB18D82A19C9140FF03C0982B05
:101C40009C9303C0809589238C93A28DB38D9C9126
:101C500083A1809589238C93A28DB38D8C9193A1C0
:101C6000AEC062B9A289B3899C91878D8095892382
:101C70008C93A289B3898C91978D892B8C9342B9CF
:101C800002C062B948B9A289B3899C91878D8095B9
:101C900089238C93A289B3898C91978D90C0A59844
:101CA00094B3862F8071880F892B84BB80910201A9
:101CB000877E8093020120910201862F992787FD5C
:101CC0009095807C992733E0959587953A95E1F733
:101CD000282B209302018EB1847C8EB99EB1862F71
:101CE0008C70880F880F262F2370820F60727727E1
:101CF00067FD70957595679575956795860F892B26
:101D00008EB9A48DB58D9C9184A1809589238C93E7
:101D1000A48DB58D8C9194A1892B8C93A48DB58DB8
:101D20009C9184A1809589238C93A489B5899C91E9
:101D300080A1809589238C93A59894B3842F80717A
:101D4000880F892B84BB80910201877E80930201DA
:101D500020910201842F992787FD9095807C9927F7
:101D600063E0959587956A95E1F7282B209302010A
:101D70008EB1847C8EB99EB1842F8C70880F880FB1
:101D8000242F2370820F4072552747FD509555959B
:101D9000479555954795840F892B8EB9A289B389AC
:101DA0009C91878D809589238C93A289B3898C918E
:101DB000978D892B8C93A489B5898C9190A1892BBF
:101DC0008C930895613131F08FEF81B9603149F41E
:101DD00087B9089588E18093010180E283BB8BE39A
:101DE0008DB908958F929F92AF92BF92CF92DF925A
:101DF000EF92FF920F931F93CF93DF93EC01680153
:101E0000790162B948B9C901B80120E130E040E088
:101E100050E00E94B93C812C912C5401821693060B
:101E2000A406B5060CF0D6C0EA89FB8990818F8D97
:101E3000809589238083EA89FB8980819F8D892B06
:101E40008083EA89FB8990818F8D809589238083A7
:101E5000EA89FB8980819F8D892B8083EA89FB89B0
:101E600090818F8D809589238083EA89FB89808189
:101E70009F8D892B8083EA89FB8990818F8D809546
:101E800089238083EA89FB8980819F8D892B8083C8
:101E9000EA89FB8990818F8D809589238083EA89E7
:101EA000FB8980819F8D892B8083EA89FB899081C2
:101EB0008F8D809589238083EA89FB8980819F8D1E
:101EC000892B8083EA89FB8990818F8D8095892376
:101ED0008083EA89FB8980819F8D892B8083EA89B1
:101EE000FB8990818F8D809589238083EA89FB8986
:101EF00080819F8D892B8083EA89FB8990818F8DDA
:101F0000809589238083EA89FB8980819F8D892B35
:101F10008083EA89FB8990818F8D809589238083D6
:101F2000EA89FB8980819F8D892B8083EA89FB89DF
:101F300090818F8D809589238083EA89FB898081B8
:101F40009F8D892B8083EA89FB8990818F8D809575
:101F500089238083EA89FB8980819F8D892B8083F7
:101F6000EA89FB8990818F8D809589238083EA8916
:101F7000FB8980819F8D892B8083EA89FB899081F1
:101F80008F8D809589238083EA89FB8980819F8D4D
:101F9000892B8083EA89FB8990818F8D80958923A5
:101FA0008083EA89FB8980819F8D892B8083EA89E0
:101FB000FB8990818F8D809589238083EA89FB89B5
:101FC00080819F8D892B80838FEF881A980AA80AB9
:101FD000B80A24CFB701A6014F7055276627772787
:101FE000452B462B472B19F1C701B60120E130E004
:101FF00040E050E00E94B93CC12CD12C76016C1518
:102000007D058E059F059CF0EA89FB8930812F8D27
:10201000209523232083EA89FB8920813F8D232B70
:1020200020832FEFC21AD20AE20AF20AE8CFDF9128
:10203000CF911F910F91FF90EF90DF90CF90BF90C5
:10204000AF909F908F9008958F929F92AF92BF9282
:10205000CF92DF92EF92FF92CF93DF93EC01690171
:102060007A0162B9CA01B90120E130E040E050E0F4
:102070000E94B93C812C912C540182169306A4062F
:10208000B5060CF0A6C1EA89FB8990818F8D8095F9
:1020900089238083EA89FB8980819F8D892B8083B6
:1020A000EA89FB8990818F8D809589238083EA89D5
:1020B000FB8980819F8D892B8083EA89FB899081B0
:1020C0008F8D809589238083EA89FB8980819F8D0C
:1020D000892B8083EA89FB8990818F8D8095892364
:1020E0008083EA89FB8980819F8D892B8083EA899F
:1020F000FB8990818F8D809589238083EA89FB8974
:1021000080819F8D892B8083EA89FB8990818F8DC7
:10211000809589238083EA89FB8980819F8D892B23
:102120008083EA89FB8990818F8D809589238083C4
:10213000EA89FB8980819F8D892B8083EA89FB89CD
:1021400090818F8D809589238083EA89FB898081A6
:102150009F8D892B8083EA89FB8990818F8D809563
:1021600089238083EA89FB8980819F8D892B8083E5
:10217000EA89FB8990818F8D809589238083EA8904
:10218000FB8980819F8D892B8083EA89FB899081DF
:102190008F8D809589238083EA89FB8980819F8D3B
:1021A000892B8083EA89FB8990818F8D8095892393
:1021B0008083EA89FB8980819F8D892B8083EA89CE
:1021C000FB8990818F8D809589238083EA89FB89A3
:1021D00080819F8D892B8083EA89FB8990818F8DF7
:1021E000809589238083EA89FB8980819F8D892B53
:1021F0008083EA89FB8990818F8D809589238083F4
:10220000EA89FB8980819F8D892B8083EA89FB89FC
:1022100090818F8D809589238083EA89FB898081D5
:102220009F8D892B8083EA89FB8990818F8D809592
:1022300089238083EA89FB8980819F8D892B808314
:10224000EA89FB8990818F8D809589238083EA8933
:10225000FB8980819F8D892B8083EA89FB8990810E
:102260008F8D809589238083EA89FB8980819F8D6A
:10227000892B8083EA89FB8990818F8D80958923C2
:102280008083EA89FB8980819F8D892B8083EA89FD
:10229000FB8990818F8D809589238083EA89FB89D2
:1022A00080819F8D892B8083EA89FB8990818F8D26
:1022B000809589238083EA89FB8980819F8D892B82
:1022C0008083EA89FB8990818F8D80958923808323
:1022D000EA89FB8980819F8D892B8083EA89FB892C
:1022E00090818F8D809589238083EA89FB89808105
:1022F0009F8D892B8083EA89FB8990818F8D8095C2
:1023000089238083EA89FB8980819F8D892B808343
:10231000EA89FB8990818F8D809589238083EA8962
:10232000FB8980819F8D892B8083EA89FB8990813D
:102330008F8D809589238083EA89FB8980819F8D99
:10234000892B8083EA89FB8990818F8D80958923F1
:102350008083EA89FB8980819F8D892B8083EA892C
:10236000FB8990818F8D809589238083EA89FB8901
:1023700080819F8D892B8083EA89FB8990818F8D55
:10238000809589238083EA89FB8980819F8D892BB1
:102390008083EA89FB8990818F8D80958923808352
:1023A000EA89FB8980819F8D892B8083EA89FB895B
:1023B00090818F8D809589238083EA89FB89808134
:1023C0009F8D892B80838FEF881A980AA80AB80AF4
:1023D00054CEB701A6014F70552766277727452BA6
:1023E000462B472B81F1C701B60120E130E040E0E8
:1023F00050E00E94B93CC12CD12C76016C157D05B2
:102400008E059F0504F1EA89FB8930812F8D209587
:1024100023232083EA89FB8920813F8D232B20837E
:10242000EA89FB8930812F8D209523232083EA8937
:10243000FB8920813F8D232B20832FEFC21AD20AE4
:10244000E20AF20ADBCFDF91CF91FF90EF90DF90AD
:10245000CF90BF90AF909F908F9008954F925F92D2
:102460006F927F92AF92BF92CF92DF92EF92FF92E4
:102470000F931F93CF93DF93CDB7DEB7C45AD10923
:102480000FB6F894DEBF0FBECDBF5C0180E4E8E478
:10249000F2E0DE01AF5BBF4F01900D928A95E1F74C
:1024A00080E4E8E8F2E0DE01119601900D928A9551
:1024B000E1F780E2E8ECF2E0DE01AF57BF4F0190B8
:1024C0000D928A95E1F7862F90E0FE01EF5BFF4FBA
:1024D000DC01AA0FBB1FEA0FFB1F0190F081E02D6A
:1024E0002F01612C712CF50145825682678270861E
:1024F000E1E0F0E0EC0FFD1FAE0FBF1F4D905C90D0
:10250000612C712CD50119964D925D926D927C9241
:102510001C97E1E8F0E0EC0FFD1FE80FF91F808148
:102520001E968C931E971D966C931D9795964C93B3
:10253000959796962C93969797960C93979798962F
:10254000EC9298979996CC929997843031F491E0D7
:102550001E969C931E971F968C93F5018685853059
:1025600019F491E096878787D5011E966C916130AA
:1025700009F4BEC0C501CD55DF4F2883C35AD040F2
:10258000CC55DF4F3883C45AD040CF55DF4F4883F6
:10259000C15AD040CE55DF4F5883C25AD04012DCCA
:1025A000CF55DF4F4881C15AD040842FCE55DF4FE1
:1025B0005881C25AD040952FFC01E655F94FE4915D
:1025C000F0E0EE0FFF1FE051F94F45915491F501F6
:1025D000518B408BFC01EC59F94F8491D5015E96EB
:1025E0008C93CD55DF4F2881C35AD040822FCC55D4
:1025F000DF4F3881C45AD040932FFC01E655F94F84
:10260000E491F0E0EE0FFF1FE051F94F2591349176
:10261000F501338B228BFC01EC59F94F8491D501E4
:102620005F968C93C801F801E655F94FE491F0E00C
:10263000EE0FFF1FE051F94F25913491F501358BD5
:10264000248BFC01EC59F94F8491D50190968C9321
:10265000F701E655F94FE491F0E0EE0FFF1FE0516E
:10266000F94F85919491F501978B868BF701EC5981
:10267000F94FE491D5019196EC9391971E968C9128
:10268000813109F0AEC0F601E655F94FE491F0E072
:10269000EE0FFF1FE051F94FA591B491F501B58FF1
:1026A000A48FF601EC59F94F8491F50184A39C9114
:1026B000809598239C9361E088E00E945A3960E0FD
:1026C00088E0CC55DF4F0FB6F894DEBF0FBECDBF0C
:1026D000DF91CF911F910F91FF90EF90DF90CF90FE
:1026E000BF90AF907F906F905F904F900C94933914
:1026F000CA01FA01E655F94FE491F0E0EE0FFF1F31
:10270000E051F94F45915491D50159965C934E9300
:102710005897FC01EC59F94F8491F50182A3C90146
:10272000F901E655F94FE491F0E0EE0FFF1FE0519B
:10273000F94F25913491D5015B963C932E935A978E
:10274000FC01EC59F94F8491F50183A3F801E6559A
:10275000F94FE491F0E0EE0FFF1FE051F94F2591A2
:102760003491D50155963C932E935497F801EC592A
:10277000F94F8491F50180A3FFEFEF16F104B9F052
:10278000F701E655F94FE491F0E0EE0FFF1FE0513D
:10279000F94F85919491D50157969C938E935697B6
:1027A000F701EC59F94FE491D5019196EC93F501BD
:1027B00087858430B1F0F601E655F94FE491F0E0F9
:1027C000EE0FFF1FE051F94F25913491D50151963D
:1027D0003C932E935097F601EC59F94F8491F501F3
:1027E000868FCC55DF4F0FB6F894DEBF0FBECDBF3E
:1027F000DF91CF911F910F91FF90EF90DF90CF90DD
:10280000BF90AF907F906F905F904F900895462F4C
:10281000DC011E962C911E97213071F05096ED919F
:10282000FC91519730815E962C915E9720952323E1
:1028300020831E962C9101C021E060E014C91F93F3
:10284000CF93DF93EC01142F8E85813041F0E8891E
:10285000F98980819E8D892B80832E8508C021E097
:10286000462F61E0CE01FFD82E85412F61E0CE01D9
:10287000DF91CF911F91F7C8462FDC011E962C9156
:102880001E97213071F05096ED91FC915197208167
:102890005E963C915E97232B20831E962C9160E0E0
:1028A00002C021E061E0DFC80F931F93CF93DF9355
:1028B0001F921F92CDB7DEB78C0149835A83A7DFE1
:1028C00049815A81652FC8010F900F90DF91CF91F8
:1028D0001F910F91B4CF6F927F928F929F92AF9280
:1028E000BF92CF920F931F93CF93DF93EC015B01C5
:1028F0003A0149018C81813059F489859A859C017E
:10290000261B370B88199909480189015A013C0196
:10291000CD848C2D90E08032910508F02BC1FC0114
:10292000EE58FF4F0C94D53C4B2D50E062E0CE01A9
:10293000BBDFA50163E0CE01B7DF492D50E064E0C5
:10294000CE01B2DFA40165E0CE01AEDF472D50E03D
:1029500066E0CE01A9DFA30167E0CE01A5DF412F2C
:1029600050E071C06AE2CE0152DF4B2D60E0CE0133
:1029700066DF4A2D60E0CE0162DF492D60E0CE01C6
:102980005EDF482D60E0CE015ADF6BE2CE013FDF13
:10299000472D60E0CE0153DF462D60E0CE014FDFD2
:1029A000412F60E0CE014BDF402F60E0CE0147DFDA
:1029B000D3C0582D44274A0D5B1D64E4CE0174DF5B
:1029C000A30165E4CE0170DFA80166E4CE016CDFEF
:1029D000A5016EE4CE0168DFA3016FE489C0A50103
:1029E00060E2CE0161DFA30161E2CE015DDFA501FE
:1029F00060E5CE0159DFA30162E5CE0155DFA401F8
:102A000061E5CE0151DFA80163E572C040E050E00E
:102A100062E0CE0149DFA50163E0CE0145DF40E081
:102A200050E064E0CE0140DFA40165E0CE013CDF70
:102A300040E050E066E0CE0137DFA30167E0CE0161
:102A400033DF40E050E068E0CE012EDFA80169E00E
:102A50004FC06AE2CE01DBDE6A2DCE010DDF682DAC
:102A6000CE010ADF6BE2CE01D2DE662D70C06AE2D3
:102A7000CE01CDDE672DCE01FFDE662DCE01FCDE60
:102A8000612FCE01F9DE602FCE01F6DE6BE2CE01C2
:102A9000BEDE6B2DCE01F0DE6A2DCE01EDDE692D9E
:102AA000CE01EADE682D56C0582D44274A295B29FD
:102AB00066E4CE01F9DEA80167E4CE01F5DEA301EC
:102AC00068E40EC0A40166E3CE01EEDEA50167E373
:102AD000CE01EADEA80168E3CE01E6DEA30169E3E8
:102AE000CE01E2DEA50160E2CE01DEDEA30161E2FD
:102AF000CE01DADE62E231C0A30162E0CE01D4DEB3
:102B0000A50163E0CE01D0DEA80166E0CE01CCDEF7
:102B1000A40167E0CE01C8DE6FE01FC06AE2CE010B
:102B200076DE6B2DCE01A8DE6A2DCE01A5DE692DE5
:102B3000CE01A2DE682DCE019FDE6BE2CE0167DE04
:102B4000672DCE0199DE662DCE0196DE612FCE0176
:102B500093DE602FCE0190DE6CE2CE01DF91CF914B
:102B60001F910F91CF90BF90AF909F908F907F90CB
:102B70006F904DCEDF91CF911F910F91CF90BF906D
:102B8000AF909F908F907F906F9008950F931F93B9
:102B9000CF93DF93EC016C8361E08DA10E945A39E1
:102BA00061E08EA10E945A3961E08FA10E945A39DA
:102BB00088A58F3F19F061E00E945A398E858131D6
:102BC00029F0813039F48F85853021F461E089A5C1
:102BD0000E945A396E85613011F0CE01F3D8EE892A
:102BE000FF89808199A1892B808365E070E080E076
:102BF00090E00E948038EE89FF89908189A18095BC
:102C0000892380836FE070E080E090E00E9480384C
:102C1000EE89FF89808199A1892B80836FE070E024
:102C200080E090E00E948038EC89FD89908188A145
:102C30008095892380834D8550E04032510510F006
:102C40000C940C30FA01EE56FF4F0C94D53C44EA3C
:102C500050E066E4CE0128DE43E550E067E4CE01B3
:102C600023DE40E050E068E4CE011EDE44E450E0A4
:102C700069E4CE0119DE44E050E06AE4CE0114DEDE
:102C800047E650E06BE4CE010FDE43E350E06CE436
:102C9000CE010ADE47E750E06DE4CE0105DE42E1F9
:102CA00050E06EE4CE0100DE4CE450E06FE4CE0173
:102CB000FBDD46E450E060E5CE01F6DD44E450E0A3
:102CC00061E5CE01F1DD40E050E062E0CE01ECDDF7
:102CD00040E050E063E0CE01E7DD40E050E064E03A
:102CE000CE01E2DD4FEE50E065E0CE01DDDD40E0FB
:102CF00050E066E0CE01D8DD40E050E067E0CE0174
:102D0000D3DD41E050E068E0CE01CEDD4FE350E09E
:102D100069E0CE01C9DD46E050E061E0CE01C4DDEE
:102D200048EC50E066E1CE01BFDD45E950E063E2EA
:102D3000CE01BADD45E950E064E2CE01B5DD4FEFEA
:102D400050E065E2CE01B0DD42E050E067E2CE0146
:102D5000ABDD42E050E068E2CE01A6DD42E050E0AB
:102D600069E2CE01A1DD42E050E06AE2CE019CDDE5
:102D700042E050E06CE2CE0197DD42E050E06DE2CF
:102D8000CE0192DD41E050E06AE3CE018DDD40E00E
:102D900050E06BE3CE0188DD40EF50E06CE3CE0104
:102DA00083DD40E050E06DE3CE017EDD61E070E068
:102DB00080E090E00E94803848E350E065E3CE0177
:102DC00073DD48E750E066E3CE016EDD48E350E096
:102DD0006EE3CE0169DD4FE050E060E4CE0164DDDA
:102DE00040EF50E061E4CE015FDD49E450E069E18D
:102DF000CE015ADD4FE050E063E9CE0155DD61E0E0
:102E000070E080E090E00E94803840E450E060E2B2
:102E1000CE014ADD47E050E06DE1CE0145DD40E006
:102E200050E06EE1CE0140DD44E050E06FE1CE01C4
:102E30003BDD4DE450E064E4CE0136DD4EE050E091
:102E400065E4CE0131DD61E070E080E090E00E9459
:102E5000803844E050E06CE1CE0126DD62E070E0B5
:102E600080E090E00E94803848E150E06BE1CE01C4
:102E70001BDD61E070E080E090E00E94803840E17E
:102E800050E06BE1CE0110DD61E070E080E090E0A9
:102E90000E94803840E850E063E4CE0105DD62E046
:102EA00070E080E090E00E9480384FE750E060E9F9
:102EB000CE01FADC44E050E066E2CE01F5DC61E0F0
:102EC00070E080E090E00E94803844E250E066E2EA
:102ED000CE01EADC4CE250E066E2CE01E5DC61E0E6
:102EE00070E080E090E00E9480384CE350E066E2C1
:102EF000CE01DADC42E050E067E5CE01D5DC41E00E
:102F000050E065E9CE01D0DC40E050E067E5B4C1B7
:102F100069EECE017CDC40E260E0CE0190DC61E154
:102F2000CE0175DC64E670E080E090E00E948038BD
:102F300061EDCE016CDC40E060E0CE0180DC41E779
:102F400060E0CE017CDC49E160E0CE0178DC60ED40
:102F5000CE015DDC47E060E0CE0171DC41E060E085
:102F6000CE016DDC48E060E0CE0169DC66E3CE01B5
:102F70004EDC48E460E0CE0162DC6AE3CE0147DC6F
:102F800045E060E0CE015BDC61ECCE0140DC40E17D
:102F900060E0CE0154DC40E160E0CE0150DC42E074
:102FA00060E0CE014CDC42E060E0CE0148DC60EC49
:102FB000CE012DDC40E060E0CE0141DC45E360E085
:102FC000CE013DDC40E060E0CE0139DC40E060E075
:102FD000CE0135DC41E060E0CE0131DC42E060E072
:102FE000CE012DDC65ECCE0112DC44E060E0CE01C8
:102FF00026DC62EDCE010BDC41E060E0CE011FDC9F
:1030000044E460E0CE011BDC68ECCE0100DC44E06F
:1030100060E0CE0114DC47E660E0CE0110DC45E361
:1030200060E0CE010CDC44E060E0CE0108DC48E06A
:1030300060E0CE0104DC46E060E0CE0100DC44E26A
:1030400060E0CE01FCDB41E060E0CE01F8DB47E36D
:1030500060E0CE01F4DB40E460E0CE01F0DB43E071
:1030600060E0CE01ECDB40E160E0CE01E8DB48E06F
:1030700060E0CE01E4DB40E860E0CE01E0DB40E070
:1030800060E0CE01DCDB6AE2CE01C1DB40E060E063
:10309000CE01D5DB40E060E0CE01D1DB40E060E076
:1030A000CE01CDDB4FEE60E0CE01C9DB6BE2CE019D
:1030B000AEDB40E060E0CE01C2DB40E060E0CE018C
:1030C000BEDB41E060E0CE01BADB4FE860E0CE015C
:1030D000B6DB69E2CE019BDB6CE2CE0198DB0C949F
:1030E0000C3041E050E060E0CE01DEDB44EA58EA1B
:1030F00063E0CE01D9DB40E050E06CE0CE01D4DBF0
:103100004CE058E06DE0CE01CFDB40E05BE26EE0EA
:10311000CE01CADB47EB50E06EE1CE01C5DB4FE3E9
:103120005BE261E0CE01C0DB40E056E062E0CE0150
:10313000BBDB40E050E060E1CE01B6DB40E750E6AB
:1031400061E1CE01B1DB40E050E065E0CE01ACDBF7
:1031500040E050E066E0CE01A7DB4CE15FEE66E1C7
:10316000CE01A2DB43E050E067E1CE019DDB43E30B
:1031700052E067E0CE0198DB40E050E06BE0CE012A
:1031800093DB40E050E06FE0CE018EDB40E050E0AA
:1031900061E4CE0189DB40E050E062E4CE0184DBF3
:1031A00040E050E068E4CE017FDB4FE351E069E4AA
:1031B000CE017ADB40E050E06AE4CE0175DB40E00E
:1031C00050E06BE4CE0170DB40E05FEE64E4CE01E2
:1031D0006BDB40E050E065E4CE0166DB4FE351E09D
:1031E00066E4CE0161DB47E057E060E3CE015CDBE3
:1031F00044E052E061E3CE0157DB44E052E062E399
:10320000CE0152DB42E055E063E3CE014DDB47E007
:1032100055E064E3CE0148DB44E052E065E3CE01D3
:1032200043DB44E052E066E3CE013EDB42E055E0A2
:1032300067E3CE0139DB42E053E06AE3CE0134DBE1
:1032400042E053E06BE3CE012FDB40E050E063E26D
:10325000CE012ADB40E050E064E2CE0125DB40E015
:1032600050E865E2CE0120DB40E050E06FE4CE01A3
:103270001BDB40E050E06EE4CE0116DB62E22DCFB6
:1032800040EF58E765EECE010FDB40E051E061E032
:10329000CE010ADB40E057E062E0CE0105DB40E30F
:1032A00050E163E0CE0100DB40E050E064E0CE019D
:1032B000FBDA47E052E068E0CE01F6DA40E050E0A9
:1032C00069E0CE01F1DA40E050E06AE0CE01ECDAEC
:1032D00040E050E06CE0CE01E7DA40E050E06DE025
:1032E000CE01E2DA40E050E06FE0CE01DDDA40E00E
:1032F00050E060E1CE01D8DA47E050E061E1CE0174
:10330000D3DA40E050E062E1CE01CEDA40E050E0B6
:1033100063E1CE01C9DA41E050E067E0CE01C4DAF2
:1033200068EC70E080E090E00E94803840E950E175
:1033300060E1CE01B9DA47E252E061E1CE01B4DAF0
:1033400062E370E080E090E00E9480384FE150E05E
:1033500062E1CE01A9DA62E370E080E090E00E94D1
:10336000803840E055E163E1CE019EDA47E250E06B
:1033700069E2CE0199DA4DE050E06BE2CE0194DAD9
:1033800062E370E080E090E00E94803840E050E02E
:1033900060E2CE0189DA40E050E061E2CE0184DAF9
:1033A00040E050E060E3CE017FDA47E057E061E3C0
:1033B000CE017ADA47E053E062E3CE0175DA40E00D
:1033C00052E065E3CE0170DA48E050E066E3CE01FA
:1033D0006BDA44E050E067E3CE0166DA40E050E0AB
:1033E00068E3CE0161DA47E057E069E3CE015CDAD9
:1033F00042E050E06CE3CE0157DA44E05DE16DE37A
:10340000CE0152DA40E050E060E5CE014DDA4FEEF9
:1034100050E061E5CE0148DA40E050E062E5CE01DF
:1034200043DA4FE351E063E5CE013EDA40E057EA8C
:1034300060E6CE0139DA41E050E061E6CE0134DAEF
:1034400040E050E06AE6CE012FDA40E050E060E86C
:10345000CE012ADA40E050E061E8CE0125DA40E012
:1034600050E062E8CE0120DA40E050E063E8CE01AF
:103470001BDA40E050E064E8CE0116DA40E050E0AC
:1034800065E8CE0111DA40E150E060E9CE010CDAE6
:1034900040E056E00AC140EF58E765EECE0104DA9D
:1034A00040E051E061E0CE01FFD940E052E062E04F
:1034B000CE01FAD940E350E163E0CE01F5D940E016
:1034C00050E064E0CE01F0D947E052E068E0CE0180
:1034D000EBD940E050E069E0CE01E6D940E050E0B1
:1034E0006AE0CE01E1D940E050E06CE0CE01DCD9E9
:1034F00040E050E06DE0CE01D7D940E050E06FE011
:10350000CE01D2D940E050E060E1CE01CDD947E014
:1035100050E061E1CE01C8D940E050E062E1CE0167
:10352000C3D940E050E063E1CE01BED941E050E0B4
:1035300067E0CE01B9D968EC70E080E090E00E94CD
:10354000803840E956E160E1CE01AED947E252E071
:1035500061E1CE01A9D962E370E080E090E00E94D1
:1035600080384DE050E062E1CE019ED962E370E028
:1035700080E090E00E94803840E052E163E1CE01BB
:1035800093D94AE050E069E2CE018ED94DE050E097
:103590006BE2CE0189D962E370E080E090E00E94A6
:1035A000803840E050E060E2CE017ED940E050E05B
:1035B00061E2CE0179D940E050E060E3CE0174D9F8
:1035C00044E054E061E3CE016FD943E050E062E3B0
:1035D000CE016AD945E054E065E3CE0165D948E003
:1035E00058E066E3CE0160D947E054E067E3CE01DE
:1035F0005BD943E053E068E3CE0156D947E057E09A
:1036000069E3CE0151D944E055E06CE3CE014CD9D9
:1036100048E058E06DE3CE0147D940E050E060E576
:10362000CE0142D94FEE50E061E5CE013DD940E0F8
:1036300050E062E5CE0138D94FE351E063E5CE01B9
:1036400033D940E057EA60E6CE012ED941E050E0A0
:1036500061E6CE0129D940E050E06AE6CE0124D9E6
:1036600040E050E060E8CE011FD940E050E061E862
:10367000CE011AD940E050E062E8CE0115D940E011
:1036800050E063E8CE0110D940E050E064E8CE019C
:103690000BD940E050E065E8CE0106D940E150E0AA
:1036A00060E9CE0101D940E050E062E9CE01FCD8EA
:1036B00043E351E067E0CE01F7D80C940C3040EFC3
:1036C00058E765EECE01F0D840E051E061E0CE0170
:1036D000EBD840E057E062E0CE01E6D840E350E1AD
:1036E00063E0CE01E1D840E050E064E0CE01DCD8F8
:1036F00047E052E068E0CE01D7D840E050E069E012
:10370000CE01D2D840E050E06AE0CE01CDD840E012
:1037100050E06CE0CE01C8D840E050E06DE0CE0152
:10372000C3D840E050E06FE0CE01BED840E050E0AA
:1037300060E1CE01B9D847E050E061E1CE01B4D8F4
:1037400040E050E062E1CE01AFD840E050E063E1FC
:10375000CE01AAD841E050E067E0CE01A5D868ECE0
:1037600070E080E090E00E94803840E955E160E13F
:10377000CE019AD847E252E061E1CE0195D862E3EA
:1037800070E080E090E00E9480384CE950E062E117
:10379000CE018AD862E370E080E090E00E94803839
:1037A00040E059E163E1CE017FD843E250E069E2B5
:1037B000CE017AD84EE050E0EBCE44E850E066E22D
:1037C000CE0172D868E270E080E090E00E9480381C
:1037D00048EB50E066E2CE0167D868E270E080E036
:1037E00090E00E9480384CEB50E066E2CE015CD85D
:1037F00064E170E080E090E00E94803840E050E0BA
:1038000060E6CE0151D846E050E061E6CE014CD8EA
:1038100040E050E062E6CE0147D848EC50E063E675
:10382000CE0142D864E170E080E090E00E948038F0
:1038300040E750E063E7CE0137D840E050E060E475
:10384000CE0132D840E450E061E4CE012DD845E409
:1038500050E062E4CE0128D841E050E063E4CE01BC
:1038600023D840E650E064E4CE011ED845E050E0A5
:1038700065E4CE0119D84CE050E066E4CE0114D8DE
:1038800041ED50E067E4CE010FD845E050E068E438
:10389000CE010AD845E750E060E5CE0105D841E009
:1038A00050E061E5CE0100D847E650E062E5CE0188
:1038B0000E94541444E150E063E5CE010E94541488
:1038C00042EF50E064E5CE010E94541447E050E01E
:1038D00065E5CE010E94541443E050E066E5CE0158
:1038E0000E94541449E450E067E5CE010E9454144C
:1038F00064E170E080E090E00E94803843E050E0B6
:103900006FE1CE010E94541440E050E060E2CE012D
:103910000E94541444E250E064E2CE010E94541428
:1039200044E350E065E2CE010E9454144FE250E0BF
:1039300063E2CE010E94541464E170E080E090E004
:103940000E94803844E450E068E1CE010E945414A3
:1039500041E050E061E2CE010E94541440E050E0AA
:1039600061E0CE010E94541443E050E06CE1CE01CE
:103970000E94541446E050E069E1CE010E945414C4
:1039800064E170E080E090E00E94803844E850E01C
:1039900066E2CE010E94541468E270E080E090E09C
:1039A0000E94803848EB50E066E2CE010E94541439
:1039B00068E270E080E090E00E9480384CEB50E0DC
:1039C00066E2CE010E94541464E170E080E090E071
:1039D0000E94803840E050E062E0CE010E94541422
:1039E00040E050E063E0CE010E94541440E050E01B
:1039F00064E0CE010E9454144FEA50E065E0CE012D
:103A00000E94541440E050E066E0CE010E9454143D
:103A100040E050E067E0CE010E94541440E050E0E6
:103A200068E0CE010E9454144BED50E069E0CE01F5
:103A30000E94541464E170E080E090E00E948038BD
:103A400048E050E066E1CE010E94541445E050E0A9
:103A500067E1CE010E94541461E2CE010E94071476
:103A60000DCC61ECCE010E9407146FEFCE010E94D5
:103A70003C1463E8CE010E943C1460E4CE010E9435
:103A80003C1461E1CE010E94071464E670E080E01E
:103A900090E00E9480386AECCE010E94071460E733
:103AA000CE010E943C1460E0CE010E943C1469EDFE
:103AB000CE010E943C1461E0CE010E943C1461E101
:103AC000CE010E943C1469ECCE010E94071460E90B
:103AD000CE010E943C1469E4CE010E943C1460E1D6
:103AE000CE010E943C1468E2CE010E943C1468E2C0
:103AF000CE010E943C1460E1CE010E943C1460E0C3
:103B0000CE010E943C1466E0CE010E943C1464E1A8
:103B100070E080E090E00E94803862ECCE010E946C
:103B2000071460E6CE010E943C1461E7CE010E94BA
:103B30003C1461E0CE010E943C146EE0CE010E9474
:103B40003C1465E0CE010E943C1462E0CE010E946C
:103B50003C1469E0CE010E943C1461E3CE010E9456
:103B60003C146AE0CE010E943C1463ECCE010E943A
:103B7000071467E6CE010E943C1460E3CE010E9468
:103B80003C1461E6CE010E943C1467E1CE010E9424
:103B90003C1468E4CE010E943C1467E0CE010E9410
:103BA0003C1465E0CE010E943C1463E3CE010E9408
:103BB0003C146AE070E080E090E00E94803865EBA1
:103BC000CE010E94071465E3CE010E943C1460E21E
:103BD000CE010E943C1465E4CE010E943C1464EBCB
:103BE000CE010E94071463E3CE010E943C1465E2FB
:103BF000CE010E943C146CE4CE010E943C146AE0A9
:103C000070E080E090E00E9480386AE3CE010E947C
:103C1000071465E0CE010E943C1469E2CE010E94C7
:103C200007146AE070E080E090E00E9480386AE269
:103C3000CE010E94071460E0CE010E943C1460E0B7
:103C4000CE010E943C1460E0CE010E943C146FEA59
:103C5000CE010E943C146BE2CE010E94071460E08A
:103C6000CE010E943C1460E0CE010E943C1460E052
:103C7000CE010E943C146BED0C94142761E1CE013F
:103C80000E9407146CE070E080E090E00E948038B1
:103C900061EBCE010E94071461E0CE010E943C144A
:103CA0006CE2CE010E943C146DE2CE010E943C14F5
:103CB00062EBCE010E94071461E0CE010E943C1429
:103CC0006CE2CE010E943C146DE2CE010E943C14D5
:103CD00063EBCE010E94071461E0CE010E943C1408
:103CE0006CE2CE010E943C146DE2CE010E943C14B5
:103CF00061E0CE010E943C146CE2CE010E943C14B3
:103D00006DE2CE010E943C1464EBCE010E940714C8
:103D100067E0CE010E943C1460ECCE010E940714C3
:103D200062EACE010E943C1462E0CE010E943C1483
:103D300064E8CE010E943C1461ECCE010E9407149D
:103D400065ECCE010E943C1462ECCE010E94071487
:103D50006AE0CE010E943C1460E0CE010E943C1457
:103D600063ECCE010E9407146AE8CE010E943C1465
:103D70006AE2CE010E943C1464ECCE010E9407145A
:103D80006AE8CE010E943C146EEECE010E943C1403
:103D900065ECCE010E9407146EE0CE010E943C1437
:103DA00066E3CE010E94071468EC97C061E1CE0182
:103DB0000E9407146CE070E080E090E00E94803880
:103DC00061EBCE010E94071461E0CE010E943C1419
:103DD0006CE2CE010E943C146DE2CE010E943C14C4
:103DE00062EBCE010E94071461E0CE010E943C14F8
:103DF0006CE2CE010E943C146DE2CE010E943C14A4
:103E000063EBCE010E94071461E0CE010E943C14D6
:103E10006CE2CE010E943C146DE2CE010E943C1483
:103E200061E0CE010E943C146CE2CE010E943C1481
:103E30006DE2CE010E943C1464EBCE010E94071497
:103E400067E0CE010E943C1460ECCE010E94071492
:103E500062EACE010E943C1462E0CE010E943C1452
:103E600064E8CE010E943C1461ECCE010E9407146C
:103E700065ECCE010E943C1462ECCE010E94071456
:103E80006AE0CE010E943C1460E0CE010E943C1426
:103E900063ECCE010E9407146AE8CE010E943C1434
:103EA0006AE2CE010E943C1464ECCE010E94071429
:103EB0006AE8CE010E943C146EEECE010E943C14D2
:103EC00065ECCE010E9407146EE0CE010E943C1406
:103ED00066E3CE010E94071460ECCE010E943C1400
:103EE00060EECE010E9407146FE0CE010E943C14E8
:103EF0006AE1CE010E943C146FE0CE010E943C14A6
:103F000068E1CE010E943C146FE2CE010E943C1495
:103F100068E2CE010E943C1460E2CE010E943C1493
:103F200062E2CE010E943C146FE1CE010E943C147B
:103F30006BE1CE010E943C1463E2CE010E943C146E
:103F400067E3CE010E943C1460E0CE010E943C1465
:103F500067E0CE010E943C1462E0CE010E943C1456
:103F600060E1CE010E943C1461EECE010E94071474
:103F70006FE0CE010E943C146BE1CE010E943C1424
:103F80006FE0CE010E943C1467E1CE010E943C1418
:103F900063E3CE010E943C146CE2CE010E943C140B
:103FA00069E2CE010E943C146EE2CE010E943C14F4
:103FB00060E3CE010E943C1460E3CE010E943C14F9
:103FC00069E3CE010E943C146FE3CE010E943C14D1
:103FD00060E0CE010E943C1467E0CE010E943C14D8
:103FE00063E0CE010E943C1460E1CE010E943C14CB
:103FF0006AE2CE010E94071460E0CE010E943C14E8
:1040000060E0CE010E943C1460E0CE010E943C14AE
:104010006FE7CE010E943C146BE2CE010E940714B0
:1040200060E0CE010E943C1460E0CE010E943C148E
:1040300060E0CE010E943C146FE9CE010E943C1466
:1040400060EFCE010E94071461E0CE010E943C1493
:1040500066EFCE010E94071460E00C94CD2A61E067
:10406000CE010E94071465E2CE010E94071460E4AD
:10407000CE010E943C1461E1CE010E9407146AE067
:1040800070E080E090E00E94803860E2CE010E9403
:10409000071468E3CE010E94071469E2CE010E9472
:1040A000071463E1CE010E94071466E3CE010E946B
:1040B000071460E6CE010E943C146AE3CE010E9420
:1040C000071465E0CE010E943C146AE2CE010E9412
:1040D000071460E0CE010E943C146FE7CE010E94FD
:1040E0003C1464EBCE010E94071463E0CE010E94F1
:1040F0003C1468E0CE010E943C146BE0CE010E94AB
:104100003C146EE0CE010E943C146AEBCE010E948A
:10411000071467E0CE010E943C146DE0CE010E94BE
:104120003C146BE2CE010E94071460E0CE010E94B5
:104130003C146FE779C661E1CE010E94071463E188
:10414000CE010E94071469E2CE010E94071460EBC1
:10415000CE010E94071465E0CE010E943C1460E08D
:10416000CE010E943C1460EFCE010E943C146AE034
:10417000CE010E943C1461E4CE010E943C1462E036
:10418000CE010E943C146AE0CE010E943C1460E320
:10419000CE010E943C1461E3CE010E943C1466E310
:1041A000CE010E943C1467E3CE010E943C1460E4FF
:1041B000CE010E943C1462E0CE010E943C146FE3E9
:1041C000CE010E943C1460E4CE010E943C1462E0E7
:1041D000CE010E943C1461E8CE010E943C1464E0D0
:1041E000CE010E943C1465E0CE010E943C1464E6BE
:1041F000CE010E943C146CEFCE010E94071468E8C7
:10420000CE010E943C1460E0CE010E943C1460E1AB
:10421000CE010E943C1461E0CE010E943C1461E09A
:10422000CE010E943C1460E1CE010E943C1462E485
:10423000CE010E943C1462E4CE010E943C1462E272
:10424000CE010E943C1461E1CE010E943C1461E168
:10425000CE010E943C1462E2CE010E943C1469E946
:10426000CE010E943C146AEACE010E943C146AEA24
:10427000CE010E943C146AEACE010E943C146BEB12
:10428000CE010E943C146BEBCE010E943C146AEA02
:10429000CE010E943C1463E3CE010E943C1463E310
:1042A000CE010E943C1461E1CE010E943C1461E009
:1042B000CE010E943C1461E0CE010E943C1461E0FA
:1042C000CE010E943C1460E0CE010E943C1460E0EC
:1042D000CE010E943C1460ECCE010E943C1460E0D0
:1042E000CE010E943C1460E0CE010E943C1460E0CC
:1042F000CE010E943C1460E0CE010E943C146DEFA0
:10430000CE010E94071468E8CE010E943C1460E0D0
:10431000CE010E943C1460E1CE010E943C1461E099
:10432000CE010E943C1461E0CE010E943C1460E189
:10433000CE010E943C1462E4CE010E943C1462E46F
:10434000CE010E943C1462E2CE010E943C1461E165
:10435000CE010E943C1461E1CE010E943C1462E255
:10436000CE010E943C1469E9CE010E943C146AEA25
:10437000CE010E943C146AEACE010E943C146AEA13
:10438000CE010E943C146BEBCE010E943C146BEBFF
:10439000CE010E943C146AEACE010E943C1463E301
:1043A000CE010E943C1463E3CE010E943C1461E103
:1043B000CE010E943C1461E0CE010E943C1461E0F9
:1043C000CE010E943C1461E0CE010E943C1460E0EA
:1043D000CE010E943C1460E0CE010E943C1460E0DB
:1043E000CE010E943C1460E0CE010E943C1460E0CB
:1043F000CE010E943C1460E0CE010E943C1463E0B8
:10440000CE010E943C146EEBCE010E94071460E0C6
:10441000CE010E943C1465E1CE010E943C1466E18D
:10442000CE010E943C1468E0CE010E943C1469E079
:10443000CE010E943C1465E1CE010E943C1460E173
:10444000CE010E943C1460E0CE010E943C1460E06A
:10445000CE010E943C1460E0CE010E943C1460EC4E
:10446000CE010E9407146EE0CE010E943C1461E070
:10447000CE010E943C1460E0CE010E943C1460E03A
:10448000CE010E943C1460E0CE010E943C1461EC1D
:10449000CE010E9407146FE2CE010E943C1463E239
:1044A000CE010E943C1464EBCE010E943C146FEFDD
:1044B000CE010E943C1464E2CE010E943C1463E0F1
:1044C000CE010E943C1460E2CE010E943C1462E0E6
:1044D000CE010E943C1462E0CE010E943C1462E0D6
:1044E000CE010E943C1460E2CE010E943C1460E2C6
:1044F000CE010E943C1460E0CE010E943C1462ECAC
:10450000CE010E94071463E0CE010E943C1466E2D3
:10451000CE010E94071468E0CE010E943C1465E3BE
:10452000CE010E94071466E3CE010E94071464E6E0
:10453000CE010E943C146AE3CE010E94071465E09C
:10454000CE010E943C146AE2CE010E9407144FE3A0
:1045500061E0CE010E941F146BE2CE010E9407149D
:104560006FEECE010E943C146CE2CE010E94071453
:104570006DE2CE010E94071410E0612FCE010E946F
:104580003C141E5F1034C9F710E0612FCE010E9469
:104590003C141F5F1034C9F710E0612FCE010E9458
:1045A0003C141E5F1034C9F70C940C3063E8CE0144
:1045B0000E94071462E0CE010E943C1465E8CE011F
:1045C0000E94071463E0CE010E943C146BE8CE0108
:1045D0000E94071461E0CE010E943C146CE8CE01F9
:1045E0000E94071463E9CE010E943C1461E9CE01E8
:1045F0000E94071461E0CE010E943C1463E8CE01E2
:104600000E94071460E0CE010E943C146EE3CE01CC
:104610000E94071460EBCE010E943C146FE3CE01B0
:104620000E94071463E0CE010E943C1460E4CE01B6
:104630000E94071460E1CE010E943C1461E4CE01A7
:104640000E94071466E5CE010E943C1462E4CE018C
:104650000E94071463E1CE010E943C1463E4CE0182
:104660000E94071466E4CE010E943C1464E4CE016B
:104670000E94071463E2CE010E943C1465E4CE015F
:104680000E94071466E7CE010E943C1466E4CE0146
:104690000E94071460E0CE010E943C1467E4CE0142
:1046A0000E9407146EE5CE010E943C1468E4CE011E
:1046B0000E9407146FE4CE010E943C1469E4CE010D
:1046C0000E94071460E4CE010E943C1467E1CE0111
:1046D0000E94071461E9CE010E943C146BE2CE01F6
:1046E0000E94071469EFCE010E943C146AE070E05A
:1046F00080E090E00E9480386BE1CE010E940714B8
:1047000064E1CE010E943C146AE1CE010E940714CC
:1047100061E1CE010E943C146CE1CE010E940714BD
:1047200066E0CE010E943C146FE1CE010E940714A6
:1047300062E4CE010E943C1464E170E080E090E00D
:104740000E94803869E1CE010E9407146AE0CE0120
:104750000E943C1469E1CE010E9407146AE1CE0177
:104760000E943C1468E270E080E090E00E94803893
:1047700069E1CE010E94071462E1CE010E943C145F
:1047800068E270E080E090E00E9480386EE1CE0147
:104790000E94071467E2CE010E943C1464E670E0B8
:1047A00080E090E00E94803864E2CE010E9407140D
:1047B00060E6CE010E943C146DE3CE010E94071416
:1047C00060E4CE010E943C1464E3CE010E94071411
:1047D00068E3CE010E943C1465E3CE010E940714F9
:1047E00068E3CE010E943C1464E2CE010E940714EB
:1047F00068E3CE010E943C1468E270E080E090E043
:104800000E94803864E2CE010E9407146CE3CE015E
:104810000E943C1466E1CE010E9407146CE1CE01B7
:104820000E943C1461E0CE010E94071466E0CE01B4
:104830000E943C1465E5CE010E94071460E0CE01A1
:104840000E943C1462E0CE010E94071460E0CE0199
:104850000E943C1463E0CE010E94071460E0CE0188
:104860000E943C1464E0CE010E94071460E0CE0177
:104870000E943C1465E0CE010E9407146FEECE0149
:104880000E943C1466E0CE010E94071460E0CE0155
:104890000E943C1467E0CE010E94071460E0CE0144
:1048A0000E943C1468E0CE010E94071461E0CE0132
:1048B0000E943C1469E0CE010E9407146FE8CE010B
:1048C0000E943C140C943E1962EECE010E94071423
:1048D00063E2CE010E943C1462E0CE010E943C14CF
:1048E00064E5CE010E943C1460EECE010E940714E4
:1048F00061E0CE010E943C146AE070E080E090E04C
:104900000E94803860EECE010E94071463E0CE0161
:104910000E943C146AE070E080E090E00E948038E1
:1049200061E0CE010E94071464E670E080E090E050
:104930000E94803866EECE010E94071461E0CE012D
:104940000E943C146FE1CE010E943C146FEFCE0137
:104950000E943C1460EBCE010E94071460E2CE017D
:104960000E943C1460E0CE010E943C1461E0CE0144
:104970000E943C146FEDCE010E943C1461E0CE0118
:104980000E943C146FE0CE010E943C1460E0CE0116
:104990000E943C1464EBCE010E94071462E0CE0139
:1049A0000E943C1463E1CE010E943C1460E0CE0101
:1049B0000E943C1468E0CE010E943C146BE2CE01E0
:1049C0000E943C1460E0CE010E943C1462E0CE01E3
:1049D0000E943C1460E0CE010E943C1466EBCE01C4
:1049E0000E94071461E0CE010E943C1460E2CE01F7
:1049F0000E943C1460E0CE010E943C1464E0CE01B1
:104A00000E943C146CE0CE010E943C1460E0CE0198
:104A10000E943C1462E0CE010E943C146AEBCE017D
:104A20000E9407146FE0CE010E943C1468EBCE0197
:104A30000E94071467E0CE010E943C1461E0CE01A1
:104A40000E943C1466E3CE010E94071462E2CE018C
:104A50000E943C1460EFCE010E94071463E0CE0177
:104A60000E943C1461E070E080E090E00E94803899
:104A70000FE011E02FED31E0ABC162EECE010E94FC
:104A800007146EE1CE010E943C1462E0CE010E9448
:104A90003C1464E5CE010E943C1460EECE010E94FD
:104AA000071461E0CE010E943C146AE070E080E0EF
:104AB00090E00E94803860EECE010E94071463E00F
:104AC000CE010E943C146AE070E080E090E00E9419
:104AD000803861E0CE010E94071464E670E080E057
:104AE00090E00E94803866EECE010E94071463E0D9
:104AF000CE010E943C146FEFCE010E943C146FEF78
:104B0000CE010E943C1460EBCE010E94071464E2C7
:104B1000CE010E943C1460E0CE010E943C1463E090
:104B2000CE010E943C146FE1CE010E943C1461E072
:104B3000CE010E943C146FEDCE010E943C1460E057
:104B4000CE010E943C1464EBCE010E94071463E086
:104B5000CE010E943C1460EACE010E943C1460E049
:104B6000CE010E943C146EE2CE010E943C1460E330
:104B7000CE010E943C1460E0CE010E943C146FE024
:104B8000CE010E943C1460E0CE010E943C1466EB12
:104B9000CE010E94071462E0CE010E943C146DE039
:104BA000CE010E943C1460E0CE010E943C1460E102
:104BB000CE010E943C1460E1CE010E943C1460E0F2
:104BC000CE010E943C1468E0CE010E943C146AEBC6
:104BD000CE010E9407146FE0CE010E943C1468EBE6
:104BE000CE010E94071467E0CE010E943C1461E0F0
:104BF000CE010E943C1466E3CE010E94071462E2DB
:104C0000CE010E943C1460EFCE010E94071463E0C5
:104C1000CE010E943C1461E070E080E090E0D2C0E0
:104C200062EECE010E94071463E2CE010E943C14A2
:104C300062E0CE010E943C1464E0CE010E943C146C
:104C400060EECE010E94071461E0CE010E943C1488
:104C50006AE070E080E090E00E94803860EECE0173
:104C60000E94071463E0CE010E943C146AE070E0E9
:104C700080E090E00E94803861E0CE010E9407143D
:104C800064E670E080E090E00E94803866EECE013D
:104C90000E94071464E0CE010E943C1463E9CE0137
:104CA0000E943C1460EECE010E943C1460EBCE01E9
:104CB0000E94071460E0CE010E943C1460E0CE0127
:104CC0000E943C1463E0CE010E943C146FE1CE01CF
:104CD0000E943C1461E0CE010E943C146FEDCE01B5
:104CE0000E943C1460E0CE010E943C1464EBCE01B3
:104CF0000E94071463E0CE010E943C1460EACE01DA
:104D00000E943C1460E0CE010E943C146EE2CE0191
:104D10000E943C1460E3CE010E943C1460E0CE018E
:104D20000E943C146FE0CE010E943C1460E0CE0172
:104D30000E943C1466EBCE010E94071462E0CE0193
:104D40000E943C146DE0CE010E943C1460E0CE0154
:104D50000E943C1460E1CE010E943C1460E1CE014F
:104D60000E943C1460E0CE010E943C1468E0CE0139
:104D70000E943C146AEBCE010E94071465E0CE014C
:104D80000E943C1468EBCE010E94071467E0CE013C
:104D90000E943C1461E0CE010E943C1466E3CE0107
:104DA0000E94071462E2CE010E943C1460EFCE0123
:104DB0000E94071463E0CE010E943C146AE070E098
:104DC00080E090E00E9480380FED11E02FE133E0A9
:104DD00040E050E060E070E0CE010E946B1469E2B8
:104DE000CE010E9407146EEBCE010E94071466E00C
:104DF000CE010E943C1460EFCE010E943C1461E0A1
:104E0000CE010E943C1460EFCE010E943C1460E091
:104E1000CE010E943C1460E0CE010E943C1460ED83
:104E2000CE010E9407146DE0CE010E943C140C9448
:104E30006C1844E050E261E1CE010E94541440E05D
:104E40005CEC63E1CE010E94541440E056E265E15F
:104E5000CE010E9454144AE255E264E1CE010E9460
:104E6000541443E350E062E1CE010E94541444E044
:104E70005CEC63E1CE010E94541446E05CEC63E11B
:104E8000CE010E9454144FE45CEC63E1CE010E9419
:104E900054144FE457E663E1CE010E94541443E0FA
:104EA00050E261E1CE010E94541449E056E260E311
:104EB000CE010E9454144CE254E261E3CE010E9400
:104EC000541443E25FE162E3CE010E94541445E2D0
:104ED00054E263E3CE010E94541446E252E264E3DA
:104EE000CE010E94541443E255E265E3CE010E94D4
:104EF00054144AE15CE166E3CE010E9454144DE192
:104F000053E167E3CE010E94541441E15BE068E3A2
:104F1000CE010E94541440E152E169E3CE010E94A7
:104F2000541445E153E16AE3CE010E94541449E16F
:104F300056E36BE3CE010E94541440E05DE06CE365
:104F4000CE010E9454144DE050E06DE3CE010E946A
:104F5000541447E050E066E1CE010E94541443E14E
:104F600050E062E0CE010E94541443E050E063E060
:104F7000CE010E94541447E251E061E0CE010E944C
:104F8000541443E053E068E0CE010E9454144BE017
:104F900050E06AE0CE010E94541443E050E06BE020
:104FA000CE010E94541440E050E06CE0CE010E941B
:104FB000541440E050E061E4CE010E94541440E0FB
:104FC00050E060E5CE010E94541445E050E060E6F8
:104FD000CE010E9454144BE050E060E7CE010E94E5
:104FE000541440E050E061E7CE010E94541440E0C8
:104FF00050E068E7CE010E94541440E050E06AE7B8
:10500000CE010E94541447E050E069E7CE010E94AF
:10501000541441E550E067E0CE010E94541443E58A
:1050200050E067E0CE010E94541440E050E069E790
:105030000C943C1961E1CE010E94071464E170E018
:1050400080E090E00E94803860EDCE010E9407145D
:1050500067E0CE010E943C1462E4CE010E943C1441
:1050600068E1CE010E943C1461EDCE010E9407145C
:1050700060E0CE010E943C1467E0CE010E943C1427
:1050800060E1CE010E943C1462EDCE010E94071443
:1050900061E0CE010E943C1462E0CE010E943C140B
:1050A00060ECCE010E94071460E1CE010E943C1426
:1050B0006BE3CE010E943C1460E0CE010E943C14E0
:1050C00062E0CE010E943C1461E1CE010E943C14DA
:1050D00065ECCE010E94071463E0CE010E943C14EF
:1050E00068ECCE010E94071460E0CE010E943C14DF
:1050F00062E3CE010E943C1466E3CE010E943C14A0
:1051000065E4CE010E943C1466E0CE010E943C148E
:1051100066E1CE010E943C1467E3CE010E943C147C
:1051200065E7CE010E943C1467E7CE010E943C1463
:1051300064E5CE010E943C146CE0CE010E943C1458
:1051400060E0CE010E943C1466E3CE010E94071489
:105150006AE0CE010E943C146AE3CE010E9407146B
:1051600065E5CE010E943C146AE2CE010E9407145C
:1051700060E0CE010E943C1460E0CE010E943C142D
:1051800061E0CE010E943C146FE3CE010E943C140A
:105190006BE2CE010E94071460E0CE010E943C1435
:1051A00060E0CE010E943C1461E0CE010E943C14FC
:1051B00060EECE010E943C1468E770E080E090E071
:1051C0000E948038F5C14AE150E061E1CE010E94C1
:1051D000541441E251E362E1CE010E9454144CE6C2
:1051E00050E063E1CE010E94541449E452E464E1CA
:1051F000CE010E94541440E058E060E1CE010E94CC
:1052000054146AE070E080E090E00E9480384AE147
:1052100051E061E1CE010E9454146AE070E080E048
:1052200090E00E9480384AE153E061E1CE010E94A3
:1052300054146AE070E080E090E00E9480384AE117
:1052400057E061E1CE010E9454146AE070E080E012
:1052500090E00E9480384AE15FE061E1CE010E9467
:1052600054146AE070E080E090E00E9480384AE3E5
:105270005FE061E1CE010E9454146EE170E080E0D5
:1052800090E00E9480384CE151E061E0CE010E9444
:10529000541440E051E062E0CE010E94541440E317
:1052A00050E163E0CE010E94541440E050E067E01A
:1052B000CE010E94541448E058E068E0CE010E94FC
:1052C000541440E051E16BE0CE010E94541440E0E0
:1052D00050E06CE0CE010E94541441E054E16FE0D4
:1052E000CE010E94541440E050E065E1CE010E94DE
:1052F000541440E050E060E2CE010E94541440E0BB
:1053000050E061E2CE010E9454144FEA50E066E39F
:10531000CE010E94541440E050E067E3CE010E94A9
:1053200054144BED50E068E3CE010E94541440E069
:1053300050E069E3CE010E94541441E05BE06FE06D
:10534000CE010E94541446E150E067E0CE010E9475
:10535000541447E150E067E00C943C1961E1CE0140
:105360000E94071468E770E080E090E00E948038B7
:1053700061EBCE010E94071465E0CE010E943C144F
:105380006CE3CE010E943C146CE3CE010E943C14FD
:1053900062EBCE010E94071465E0CE010E943C142E
:1053A0006CE3CE010E943C146CE3CE010E943C14DD
:1053B00063EBCE010E94071465E0CE010E943C140D
:1053C0006CE3CE010E943C146CE3CE010E943C14BD
:1053D00065E0CE010E943C146CE3CE010E943C14B7
:1053E0006CE3CE010E943C1464EBCE010E940714D2
:1053F00063E0CE010E943C1460ECCE010E940714D1
:1054000068E2CE010E943C1468E0CE010E943C1488
:1054100064E0CE010E943C1461ECCE010E940714AE
:1054200060ECCE010E943C1462ECCE010E94071495
:105430006DE0CE010E943C1460E0CE010E943C145D
:1054400063ECCE010E9407146DE8CE010E943C146B
:105450006AE2CE010E943C1464ECCE010E94071463
:105460006DE8CE010E943C146EEECE010E943C1409
:1054700065ECCE010E9407146AE1CE010E943C1443
:1054800066E3CE010E94071460ECCE010E943C143A
:1054900060EECE010E94071463E0CE010E943C142E
:1054A00062E2CE010E943C1467E0CE010E943C14EF
:1054B0006AE0CE010E943C146EE2CE010E943C14D0
:1054C00060E3CE010E943C1465E2CE010E943C14D0
:1054D0006AE2CE010E943C1468E2CE010E943C14B4
:1054E00066E2CE010E943C146EE2CE010E943C14A2
:1054F0006AE3CE010E943C1460E0CE010E943C149D
:1055000061E0CE010E943C1463E0CE010E943C1495
:1055100063E1CE010E943C1461EECE010E940714AB
:1055200064E0CE010E943C1466E1CE010E943C146E
:1055300066E0CE010E943C146DE0CE010E943C1456
:105540006DE2CE010E943C1466E2CE010E943C1442
:1055500063E2CE010E943C1467E2CE010E943C143B
:1055600067E2CE010E943C1465E2CE010E943C1429
:105570006DE2CE010E943C146BE3CE010E943C140C
:1055800060E0CE010E943C1461E0CE010E943C1418
:1055900064E0CE010E943C1463E1CE010E943C1401
:1055A0006AE3CE010E94071465E0CE010E943C141C
:1055B00069E20C946D1861E1CE010E94071464E168
:1055C00070E080E090E00E94803868E2CE010E94A6
:1055D000071465E070E080E090E00E9480386FEC96
:1055E000CE010E94071460E0CE010E943C1463E8E3
:1055F000CE010E943C1460E3CE010E943C146DEE8B
:10560000CE010E94071464E6CE010E943C1463E0C0
:10561000CE010E943C1462E1CE010E943C1461E87C
:10562000CE010E943C1468EECE010E94071465E88A
:10563000CE010E943C1461E0CE010E943C1469E757
:10564000CE010E943C146BECCE010E94071469E36A
:10565000CE010E943C146CE2CE010E943C1460E03A
:10566000CE010E943C1464E3CE010E943C1462E02F
:10567000CE010E943C1467EFCE010E94071460E245
:10568000CE010E943C146AEECE010E94071460E035
:10569000CE010E943C1460E0CE010E943C1460ECFC
:1056A000CE010E94071466E2CE010E943C1461EC18
:1056B000CE010E94071461E1CE010E943C1465EC0A
:1056C000CE010E94071465E3CE010E943C146EE3F4
:1056D000CE010E943C1467ECCE010E9407146EEBD1
:1056E000CE010E943C1461EBCE010E94071460E0E1
:1056F000CE010E943C146BE1CE010E943C1466EB8B
:10570000CE010E9407146AE0CE010E943C1462E8B8
:10571000CE010E943C1467E2CE010E943C1460E07E
:10572000CE010E943C1467EBCE010E94071467E093
:10573000CE010E943C146AE3CE010E94071465E585
:10574000CE010E943C1466E3CE010E94071468E477
:10575000CE010E943C1469E2CE010E94071465E06C
:1057600070E080E090E056C46BECCE010E9407141C
:1057700069E3CE010E943C146CE2CE010E943C140D
:1057800060E0CE010E943C1464E3CE010E943C1410
:1057900062E0CE010E943C146FECCE010E9407141F
:1057A00060E0CE010E943C1461ECCE010E943C14EA
:1057B00060E3CE010E943C1468EECE010E94071403
:1057C00065E8CE010E943C1460E0CE010E943C14CA
:1057D00068E7CE010E943C146AEECE010E940714D5
:1057E00060E0CE010E943C1460E0CE010E943C14B7
:1057F0006DEECE010E94071464E6CE010E943C14B7
:1058000063E0CE010E943C1462E1CE010E943C1490
:1058100061E8CE010E943C1467EFCE010E9407149C
:1058200060E2CE010E943C1460ECCE010E9407149D
:1058300063E2CE010E943C1461ECCE010E94071489
:1058400060E1CE010E943C1465ECCE010E94071479
:105850006EE3CE010E943C1468E2CE010E943C142B
:1058600067ECCE010E94071466E8CE010E943C144A
:1058700066E3CE010E94071468E4CE010E943C1446
:105880006AE3CE010E94071465E5CE010E943C1434
:1058900061EBCE010E94071460E0CE010E943C142F
:1058A00068E1CE010E943C1466EBCE010E94071411
:1058B00068E0CE010E943C1462E8CE010E943C14D4
:1058C00067E2CE010E943C1461E1CE010E94071400
:1058D00068E770E080E090E09DC260EBCE010E943E
:1058E00007146EE1CE010E943C1460EBCE010E94D1
:1058F000071460E0CE010E943C1463EBCE010E94CD
:10590000071462E0CE010E943C1460E0CE010E94C8
:105910003C1460E0CE010E943C1460E1CE010E9484
:105920003C1464EBCE010E94071460E0CE010E949B
:105930003C1460ECCE010E94071463E0CE010E948B
:105940003C146BE3CE010E943C1460E0CE010E9447
:105950003C1460E0CE010E943C1460E0CE010E9445
:105960003C1461E0CE010E943C1460E0CE010E9434
:105970003C1463E4CE010E943C1461ECCE010E9411
:10598000071468E0CE010E943C1465E1CE010E943C
:105990003C1468E0CE010E943C1468E0CE010E94F5
:1059A0003C1464ECCE010E94071465E1CE010E9414
:1059B0003C1463E0CE010E943C1463E0CE010E94DF
:1059C0003C1461E0CE010E943C1466ECCE010E94C2
:1059D000071462E0CE010E943C1468ECCE010E94E4
:1059E00007146CE0CE010E943C1465E0CE010E94D9
:1059F0003C146AE0CE010E943C146BE6CE010E948A
:105A00003C1464E0CE010E943C1466E0CE010E948A
:105A10003C1465E1CE010E943C1460E1CE010E947D
:105A20003C1460E0CE010E943C1460E6CE010E946E
:105A30003C1466E3CE010E9407146AE0CE010E9486
:105A40003C146CE0CE010E94071465E5CE010E9473
:105A50003C146AE3CE010E94071465E5CE010E9462
:105A60003C1468E3CE010E94071460EDCE010E9451
:105A7000071467E0CE010E943C1467E0CE010E944B
:105A80003C1464E1CE010E943C1462EACE010E9403
:105A90003C1461EDCE010E94071463E0CE010E9428
:105AA0003C146AE5CE010E943C1460E1CE010E94E4
:105AB0003C1462EDCE010E94071463E0CE010E9407
:105AC0003C1464E0CE010E943C1464E0CE010E94CC
:105AD0003C1461E1CE010E94071466E970E080E0A9
